{
  "_format": "hh-sol-artifact-1",
  "contractName": "Voting",
  "sourceName": "contracts/Voting.sol",
  "abi": [
    {
      "inputs": [],
      "stateMutability": "nonpayable",
      "type": "constructor"
    },
    {
      "inputs": [
        {
          "internalType": "uint256",
          "name": "",
          "type": "uint256"
        }
      ],
      "name": "candidates",
      "outputs": [
        {
          "internalType": "uint256",
          "name": "id",
          "type": "uint256"
        },
        {
          "internalType": "string",
          "name": "name",
          "type": "string"
        },
        {
          "internalType": "uint256",
          "name": "voteCount",
          "type": "uint256"
        }
      ],
      "stateMutability": "view",
      "type": "function"
    },
    {
      "inputs": [],
      "name": "candidatesCount",
      "outputs": [
        {
          "internalType": "uint256",
          "name": "",
          "type": "uint256"
        }
      ],
      "stateMutability": "view",
      "type": "function"
    },
    {
      "inputs": [
        {
          "internalType": "uint256",
          "name": "_candidateId",
          "type": "uint256"
        }
      ],
      "name": "getCandidateVotes",
      "outputs": [
        {
          "internalType": "uint256",
          "name": "",
          "type": "uint256"
        }
      ],
      "stateMutability": "view",
      "type": "function"
    },
    {
      "inputs": [
        {
          "internalType": "address",
          "name": "",
          "type": "address"
        }
      ],
      "name": "hasVoted",
      "outputs": [
        {
          "internalType": "bool",
          "name": "",
          "type": "bool"
        }
      ],
      "stateMutability": "view",
      "type": "function"
    },
    {
      "inputs": [
        {
          "internalType": "uint256",
          "name": "_candidateId",
          "type": "uint256"
        }
      ],
      "name": "vote",
      "outputs": [],
      "stateMutability": "nonpayable",
      "type": "function"
    }
  ],
  "bytecode": "0x608060405234801561001057600080fd5b506100556040518060400160405280600581526020017f416c69636500000000000000000000000000000000000000000000000000000081525061009e60201b60201c565b6100996040518060400160405280600381526020017f426f62000000000000000000000000000000000000000000000000000000000081525061009e60201b60201c565b6104b1565b600260008154809291906100b190610151565b9190505550604051806060016040528060025481526020018281526020016000815250600080600254815260200190815260200160002060008201518160000155602082015181600101908161010791906103df565b506040820151816002015590505050565b7f4e487b7100000000000000000000000000000000000000000000000000000000600052601160045260246000fd5b6000819050919050565b600061015c82610147565b91507fffffffffffffffffffffffffffffffffffffffffffffffffffffffffffffffff820361018e5761018d610118565b5b600182019050919050565b600081519050919050565b7f4e487b7100000000000000000000000000000000000000000000000000000000600052604160045260246000fd5b7f4e487b7100000000000000000000000000000000000000000000000000000000600052602260045260246000fd5b6000600282049050600182168061021a57607f821691505b60208210810361022d5761022c6101d3565b5b50919050565b60008190508160005260206000209050919050565b60006020601f8301049050919050565b600082821b905092915050565b6000600883026102957fffffffffffffffffffffffffffffffffffffffffffffffffffffffffffffffff82610258565b61029f8683610258565b95508019841693508086168417925050509392505050565b6000819050919050565b60006102dc6102d76102d284610147565b6102b7565b610147565b9050919050565b6000819050919050565b6102f6836102c1565b61030a610302826102e3565b848454610265565b825550505050565b600090565b61031f610312565b61032a8184846102ed565b505050565b5b8181101561034e57610343600082610317565b600181019050610330565b5050565b601f8211156103935761036481610233565b61036d84610248565b8101602085101561037c578190505b61039061038885610248565b83018261032f565b50505b505050565b600082821c905092915050565b60006103b660001984600802610398565b1980831691505092915050565b60006103cf83836103a5565b9150826002028217905092915050565b6103e882610199565b67ffffffffffffffff811115610401576104006101a4565b5b61040b8254610202565b610416828285610352565b600060209050601f8311600181146104495760008415610437578287015190505b61044185826103c3565b8655506104a9565b601f19841661045786610233565b60005b8281101561047f5784890151825560018201915060208501945060208101905061045a565b8683101561049c5784890151610498601f8916826103a5565b8355505b6001600288020188555050505b505050505050565b610788806104c06000396000f3fe608060405234801561001057600080fd5b50600436106100575760003560e01c80630121b93f1461005c57806309eef43e146100785780632d35a8a2146100a85780633477ee2e146100c6578063866163c0146100f8575b600080fd5b610076600480360381019061007191906103bd565b610128565b005b610092600480360381019061008d9190610448565b61028b565b60405161009f9190610490565b60405180910390f35b6100b06102ab565b6040516100bd91906104ba565b60405180910390f35b6100e060048036038101906100db91906103bd565b6102b1565b6040516100ef93929190610565565b60405180910390f35b610112600480360381019061010d91906103bd565b610363565b60405161011f91906104ba565b60405180910390f35b600160003373ffffffffffffffffffffffffffffffffffffffff1673ffffffffffffffffffffffffffffffffffffffff16815260200190815260200160002060009054906101000a900460ff16156101b5576040517f08c379a00000000000000000000000000000000000000000000000000000000081526004016101ac906105ef565b60405180910390fd5b6000811180156101c757506002548111155b610206576040517f08c379a00000000000000000000000000000000000000000000000000000000081526004016101fd9061065b565b60405180910390fd5b60018060003373ffffffffffffffffffffffffffffffffffffffff1673ffffffffffffffffffffffffffffffffffffffff16815260200190815260200160002060006101000a81548160ff0219169083151502179055506000808281526020019081526020016000206002016000815480929190610283906106aa565b919050555050565b60016020528060005260406000206000915054906101000a900460ff1681565b60025481565b60006020528060005260406000206000915090508060000154908060010180546102da90610721565b80601f016020809104026020016040519081016040528092919081815260200182805461030690610721565b80156103535780601f1061032857610100808354040283529160200191610353565b820191906000526020600020905b81548152906001019060200180831161033657829003601f168201915b5050505050908060020154905083565b6000806000838152602001908152602001600020600201549050919050565b600080fd5b6000819050919050565b61039a81610387565b81146103a557600080fd5b50565b6000813590506103b781610391565b92915050565b6000602082840312156103d3576103d2610382565b5b60006103e1848285016103a8565b91505092915050565b600073ffffffffffffffffffffffffffffffffffffffff82169050919050565b6000610415826103ea565b9050919050565b6104258161040a565b811461043057600080fd5b50565b6000813590506104428161041c565b92915050565b60006020828403121561045e5761045d610382565b5b600061046c84828501610433565b91505092915050565b60008115159050919050565b61048a81610475565b82525050565b60006020820190506104a56000830184610481565b92915050565b6104b481610387565b82525050565b60006020820190506104cf60008301846104ab565b92915050565b600081519050919050565b600082825260208201905092915050565b60005b8381101561050f5780820151818401526020810190506104f4565b60008484015250505050565b6000601f19601f8301169050919050565b6000610537826104d5565b61054181856104e0565b93506105518185602086016104f1565b61055a8161051b565b840191505092915050565b600060608201905061057a60008301866104ab565b818103602083015261058c818561052c565b905061059b60408301846104ab565b949350505050565b7f596f75206861766520616c726561647920766f7465642e000000000000000000600082015250565b60006105d96017836104e0565b91506105e4826105a3565b602082019050919050565b60006020820190508181036000830152610608816105cc565b9050919050565b7f496e76616c69642063616e6469646174652e0000000000000000000000000000600082015250565b60006106456012836104e0565b91506106508261060f565b602082019050919050565b6000602082019050818103600083015261067481610638565b9050919050565b7f4e487b7100000000000000000000000000000000000000000000000000000000600052601160045260246000fd5b60006106b582610387565b91507fffffffffffffffffffffffffffffffffffffffffffffffffffffffffffffffff82036106e7576106e661067b565b5b600182019050919050565b7f4e487b7100000000000000000000000000000000000000000000000000000000600052602260045260246000fd5b6000600282049050600182168061073957607f821691505b60208210810361074c5761074b6106f2565b5b5091905056fea264697066735822122000d79f9ceb3a3d327e146fbc5b6b073c8ad3104dfa65ef7721cdfebb3ee8601464736f6c634300081c0033",
  "linkReferences": {},
  "deployedLinkReferences": {}
}